:020000040800F2
:10000000000400204B010008A7010008A901000816
:10001000AB010008AD010008AF01000800000000BE
:10002000000000000000000000000000B101000816
:10003000B301000800000000B5010008B701000886
:100040006B0100086B0100086B0100086B010008E0
:100050006B0100086B0100086B0100086B010008D0
:100060006B0100086B0100086B0100086B010008C0
:100070006B0100086B0100086B0100086B010008B0
:100080006B0100086B0100086B0100086B010008A0
:100090006B0100086B0100086B0100086B01000890
:1000A0006B0100086B0100086B0100086B01000880
:1000B000CD1F00082F2500086B0100086B01000808
:1000C0006B0100086B0100086B0100086B01000860
:1000D0006B010008910200086B0100086B01000829
:1000E0006B0100086B0100086B0100086B01000840
:1000F0006B0100086B0100086B0100086B01000830
:100100006B0100086B0100086B0100086B0100081F
:100110006B0100086B0100086B0100086B0100080F
:100120006B0100086B0100086B0100086B010008FF
:10013000DFF810D002F082FD004800477901000886
:10014000AFF3008008030020704708488047084943
:1001500081F3088807480047FEE7FEE7FEE7FEE771
:10016000FEE7FEE7FEE7FEE7FEE7FEE749010008DF
:1001700008030020310100084FF4A06000F004FDE6
:1001800001F0FAFC4FF47A7000F018F900F073F8FF
:1001900002F0C7F902F048F801F089FD02F08EFA8A
:1001A00002F037F9FCE77047FEE7FEE7FEE7FEE7FF
:1001B000704770477047704738B50121042000F040
:1001C00027FB4FF40070ADF8000018208DF80300F5
:1001D0006C4D03248DF802406946284600F049F929
:1001E0002915ADF8001004208DF803006946284653
:1001F00000F03FF9A815ADF8000010208DF80300BD
:100200008DF802406946284600F033F938BD1FB525
:100210000121880300F0FCFA4FF496400090002082
:10022000ADF80400ADF80600ADF80800ADF80C001C
:100230000C20ADF80A006946534800F06AFB1FBD68
:1002400038B525208DF8000001208DF803008DF8C9
:1002500001008DF80200684600F09BFC4A4D40F218
:1002600025542146284600F083FC012221462846D9
:1002700000F0BCFB38BD10B5FFF79EFFFFF7C7FFCE
:10028000FFF7DEFFBDE8104001213F4800F0A4BBAE
:100290002DE9F0413C4E40F225584146304600F0F1
:1002A00048FC0127394C002598B14146304600F002
:1002B0005FFCA5812078012801D0E57227703046C7
:1002C00000F0E4FB3149E27A491C5054E07A401CCA
:1002D000E07240F227784146304600F02AFC0028C0
:1002E0001CD0A07B012801D0A576A773A07E617EDB
:1002F000884208D2254901F10F01415C3046BDE832
:10030000F04100F0BFBB09D1A573A5764146304648
:10031000BDE8F0414FF0000200F068BBBDE8F0819D
:100320001A490878012809D18889401C80B288813F
:10033000052803D90020888102200870704730B456
:100340000022124B05E09D1810F8014B521CEC7373
:10035000D2B28A42F7D3597630BC012240F22771DB
:10036000094800F043BB70B5074D0446C1B22846AA
:1003700000F088FB4021284600F0D1FB0028F9D08E
:10038000204670BD000801400038014028000020D0
:100390004FF0E02100EBC000486100238B61086949
:1003A00040F0010008610869C20701D0C003FAD516
:1003B000086920F0010008618B6170474FF47A7181
:1003C0004843E5E7894A10B5811A1315D4149042C1
:1003D0002ED00DDC864940181CD0984221D0A04276
:1003E0003BD10121102000F025FA002110200DE062
:1003F000994224D0A14229D0B1F5406F2DD10121DD
:100400000C02204600F016FA00212046BDE81040FC
:1004100000F010BA0121042000F00CFA00210420A1
:10042000F4E70121082000F005FA00210820EDE79B
:100430000121202000F0FEF900212020E6E7012123
:10044000402000F0F7F900214020DFE70121802063
:1004500000F0F0F900218020D8E710BD10B501218F
:10046000084600F0E7F90021BDE81040012000F047
:10047000E1B9F0B5CC78002204F00F03E40601D511
:100480008C7823430C784FF00F0C14F0FF0F4FF0D3
:10049000010E1BD005680E880EFA02F42640A64213
:1004A00010D196000CFA06F725EA070703FA06F5BD
:1004B000CE783D43282E02D0482E02D002E044617F
:1004C00000E00461521C082AE5D305600A88FF2A6F
:1004D0001CD94468002202F108060EFA06F50E88BF
:1004E0002E40AE420ED196000CFA06F7BC4303FA3A
:1004F00006F7CE783C43282E00D14561CE78482EB1
:1005000000D10561521C082AE5D34460F0BD4FF6C6
:10051000FF710180022181700421C1707047024681
:10052000002092680A4200D001207047806880B2A3
:10053000704702460020D2680A4200D0012070476E
:10054000C06880B2704701617047416170470AB16D
:100550000161704741617047C160704741F480326A
:10056000826181618261816980697047214B10B528
:100570001A684FF68074224042EA0010084318605F
:1005800010BD1D49C8617047F0B51A4D6B68440D28
:10059000260184B2C0F30157B440C0F30342032FD5
:1005A00005D0C0020AD503209040834307E0686865
:1005B00023F0706220F07060686002E0A34343F0B3
:1005C000706201B122436A60F0BD10B58A0721F064
:1005D00003040849120F21440F238C6893409C4365
:1005E0008C608B68904003438B6010BD0014014009
:1005F00000F8FEBF0000014000002042A44801684E
:1006000041F0010101604168A24A11404160016866
:10061000A14A11400160016821F480210160416814
:1006200021F4FE01416000218160704798490A6809
:1006300022F480320A600A6822F480220A60B0F54F
:10064000803F07D0B0F5802F03D1086840F4A02088
:1006500008607047086840F48030F9E703460020DE
:1006600059098B4A01290AD002290AD0516A03F09C
:100670001F02012393400B4200D0012070471168F4
:10068000F5E7116AF3E718B500204FF4A064009075
:100690003120FFF7E3FF0099491C009108B9A142FE
:1006A000F6D13120FFF7DAFF002800D0012018BD75
:1006B000774A116821F0F80141EAC00010607047E4
:1006C000764908607047724B5A68084322F47C12DE
:1006D0001043586070477149086670476C4A51680A
:1006E00021F003010143516070476948406800F000
:1006F0000C007047664A516821F0F00101435160D7
:100700007047634A516821F4E061014351607047CA
:100710005F4A516821F4605141EAC000506070475F
:100720005B4A0029517A01D0014300E081435172B4
:1007300070475A49C1F8D8007047554A516821F4AA
:1007400040410143516070475149002281F8202007
:1007500081F82020012802D0042802D1052081F848
:10076000200070474E490860704749490A6A0243B1
:100770000A6270474A4944390860704730B5444AB4
:100780005168484B11F00C0103D0042901D008290D
:1007900001D0036011E05168022301F4701103EBF2
:1007A0009141536813F4803F02D053689B0301D5F5
:1007B0003D4B00E03B4B5943016051680F2303EA76
:1007C00011113A4B5C5C0168E140416054680725B7
:1007D00005EA14241C5D21FA04F48460546805EAD7
:1007E000D4241B5DD940C1605268032303EA9232CE
:1007F0002E4B1B1F9A5CB1FBF2F1016130BD244A04
:100800000029516901D0014300E0814351617047E3
:100810001F4A0029916901D0014300E081439161A1
:1008200070471B4A0029D16901D0014300E0814390
:10083000D1617047164A0029D16801D0014300E018
:100840008143D1607047124A0029116901D00143E8
:1008500000E08143116170471149403908607047D9
:100860000E49C86470470A49C87170470848416A10
:1008700041F0807141627047054A0146002092684C
:100880000A4200D001207047014988727047000079
:10089000001002400000FFF8FFFFF6FE0000424299
:1008A0008004424200127A0000093D00040000204A
:1008B000B24A10B5811A131590421BD007DCB0491B
:1008C000401814D0984223D101218C0417E099429A
:1008D00013D0B1F56C4F1BD101218C032046FFF7DB
:1008E000A9FF2046BDE810400021FFF7A3BF01216A
:1008F0004C0404E00121CC0401E001210C05204658
:10090000FFF7A1FF2046BDE810400021FFF79BBF85
:1009100010BD30B50446008A85B00D464CF6FF7117
:100920000840E98801432182A0894EF6F31108406E
:10093000A9882A8911436A8902431143A181A08AA7
:100940004FF6FF410840A9890143A1826846FFF79D
:1009500015FF8C48844201D1039800E0029864227C
:1009600000EBC00101EB001029686FF01805890049
:10097000B0FBF1F0B0FBF2F109010B096B4300EBA6
:100980008300322303EB0010B0FBF2F000F00F0005
:100990000843208105B030BD4FF41651016000219D
:1009A0008180C18001810C2242818181704710B514
:1009B000028A4FF2FF031A400B884C8823438C882D
:1009C000C9880C4323431343038210BD00210180D7
:1009D00041808180C18070470029818902D041F423
:1009E000005101E021F400518181704710B5C1F33D
:1009F000421301F01F040121A140012B07D0022B5B
:100A000007D01430002A026805D00A4304E00C30F5
:100A1000F8E71030F6E78A43026010BD002A828AA8
:100A200001D00A4300E08A4382827047028A22F0A2
:100A30000F020282028A0A4302827047828922F4EC
:100A40000062828182890A438281704700298189FC
:100A500002D041F0020101E021F0020181817047E2
:100A6000028A22F020020282028A0A43028270472E
:100A70000029018A02D041F4804101E021F4804143
:100A800001827047C1F30801818070478088C0F3FC
:100A900008007047818941F0010181817047028B14
:100AA000D2B20283028B42EA012101837047028B9A
:100AB00002F47F420283028B0A43028370470029BB
:100AC000818A02D041F0200101E021F020018182E1
:100AD00070470029818A02D041F0100101E021F025
:100AE0001001818270470029818A02D041F00801FB
:100AF00001E021F0080181827047828A22F004021D
:100B00008282828A0A43828270470029818A02D0C7
:100B100041F0020101E021F00201818270470246AA
:100B2000002012880A4200D001207047C94301808A
:100B3000704770B501F01F0501260024C1F3421370
:100B400006FA05F2012B0FD0022B0FD0838A4FEA51
:100B500011210088134206FA01F600EA060001D0CE
:100B600000B10124204670BD8389F0E7038AEEE7D7
:100B70000A0A01219140C94301807047004C00409E
:100B800000BCFFBF003801402849084328490860DD
:100B9000704730B50F23C27801780125F2B1244A9D
:100BA000126801F1E02102F4E062C2F5E062120A8B
:100BB000C2F10404D3404278A24084781C4014431C
:100BC000220181F80024007800F01F018D404009C7
:100BD000800000F1E020C0F8005130BD01F01F009E
:100BE00085404809800000F1E020C0F8805130BD08
:100BF000104A114001430E48001F016070470C4A23
:100C0000121D0029116801D0014300E081431160E9
:100C100070474FF0E0210428086903D020F0040059
:100C20000861704740F00400FAE700000000FA0590
:100C30000CED00E080FFFF1FFA4A10B5811A131572
:100C4000D41490423BD010DCB0F1804F22D0F64952
:100C5000401826D098422BD0A04241D10121082033
:100C6000FFF7F1FD0021082036E099422ED0B1F5C2
:100C70008E3F0DD0B1F5923F32D101214C03204679
:100C8000FFF7D8FD2046BDE810400021FFF7D2BD98
:100C90000121F4E701210846FFF7D5FD00210120DD
:100CA0001AE001210220FFF7CEFD0021022013E00F
:100CB00001210420FFF7C7FD002104200CE00121E1
:100CC0001020FFF7C0FD0021102005E001212020A9
:100CD000FFF7B9FD00212020BDE81040FFF7B3BDAC
:100CE00010BD028802F08F020280CA884B881A4326
:100CF00003881A4302808A8882850A880285CB4A43
:100D0000904202D0CA4A904201D1097A018601215B
:100D10008182704730B5028C22F001020284028C7D
:100D20008388048B22F0020224F070050C882C4387
:100D30000D8915434A882A43CD888586BB4DA84234
:100D400002D0BB4DA8420DD122F008054A8923F4F8
:100D500003432A4322F004058A882A438D891D43D0
:100D6000CB892B4383800483028430BD70B5028C11
:100D700022F010020284028C8388048B0D8824F4F4
:100D8000E0464FF6FF7404EA052535430E8922F04C
:100D9000200204EA061616434A8804EA0212324385
:100DA000CE880687A14EB04202D0A14EB04215D1E6
:100DB00022F080064A8923F40C4304EA02123243EB
:100DC00022F040068A8804EA021232438E89C989D9
:100DD00004EA86061E4304EA8103334383800583C5
:100DE000028470BD70B5028C22F480720284028C81
:100DF0008388848B0D8824F0700425430E894FF678
:100E0000FF7422F4007204EA062616434A8804EAB4
:100E100002223243CE888687844EB04202D0844E6E
:100E2000B04215D122F400664A8923F4304304EA23
:100E30000222324322F480668A8804EA0222324384
:100E40008E89C98904EA06161E4304EA0113334356
:100E500083808583028470BD70B5028C22F4805239
:100E60000284058C8288838B0C8823F4E0464FF63D
:100E7000FF7303EA042434430E8925F4005503EA82
:100E800006362E434D8803EA05353543CE88A0F853
:100E90004060664EB04202D0654EB04205D18989AD
:100EA000C2F30D0603EA81123243828084830584F3
:100EB00070BD828B22F440628283828B4FF6FF7377
:100EC00003EA01210A4382837047828B22F00C02DD
:100ED0008283828B0A4382837047028B22F44062B2
:100EE0000283028B4FF6FF7303EA01210A43028358
:100EF0007047F0B5048C24F010040484078B068C32
:100F00004FF6FF7404EA011527F4734704EA03312E
:100F1000394304EA02220A4326F02001294341F022
:100F2000100102830184F0BD028B22F00C020283C7
:100F3000028B0A43028370472DE9F0410C460546B7
:100F400008884988A2882389F8B1042825D0082870
:100F5000288C4FF6FF7628D020F480502884AF8B61
:100F6000288C06EA0131120227F4734642EA033262
:100F7000324320F40050084340F48050AA83288470
:100F8000E1882846BDE8F04193E7284600F0CBFA17
:100F9000E1882846BDE8F041C6E72846FFF7A9FFEB
:100FA000E1882846BDE8F04197E720F48070288466
:100FB000AF8B288C06EA031327F0F30713433B4358
:100FC00006EA012120F40070084340F48070AB83EE
:100FD0002884E1882846BDE8F04176E72DE9F04114
:100FE0000C46002649880746012501B90226A28839
:100FF000012A00D10225208823890028384619D0EB
:10100000FFF777FFE1883846FFF767FF23892A4615
:101010003146384600F087FAE1883846BDE8F041AD
:1010200082E700000010004000FCFFBF002C0140E0
:101030000034014000F077FAE1883846FFF774FF8A
:1010400023892A4631463846FFF753FFE188384660
:10105000BDE8F04141E710B50A884B88CC881A43B7
:101060008B8823431A430B891A434B8989891A4376
:101070000A43A0F8442010BD4FF6FF718180002183
:101080000180C18041800172704700210180418050
:101090008180C180018141818181C18170470021AE
:1010A0000180418001228280C1800181704700213E
:1010B000018041808180C1800181418181817047AF
:1010C0000029018802D041F0010102E040F2FE3225
:1010D000114001807047002930F8441F02D041F4CC
:1010E000004101E0C1F30E0101807047002A8289AE
:1010F00001D00A4300E08A438281704781827047B1
:101100001143A0F848107047002A828901D00A4391
:1011100000E08A4382817047018921F00701018143
:101120007047028922F070020A430281704700B5BD
:101130000346FFF7F6FF188940F00700188100BD4D
:1011400070B516460D46602904464FF0010231463F
:101150000AD000F0E8F929462046FFF7E2FF20898F
:1011600040F00700208170BDFFF7C3FEF3E710B524
:10117000048911434FF6FF7202EA0322E4B21143DD
:101180002143018110BD10B50446FFF7F0FF20890F
:1011900040F07700208110BD10B50446FFF7E7FF4F
:1011A000208940F48040208110BD018582827047F3
:1011B000028840F28F331A400A430280704770B5AC
:1011C0000589048B068C25F007050D434FF6FC417D
:1011D0000C4040F201110C434FF6FF7101EA03117C
:1011E00026F022061143314305810483018470BD3A
:1011F000028B22F070020A4302837047028B4FF683
:10120000FF7322F4E04203EA012111430183704796
:10121000828B22F070020A4382837047828B4FF6E2
:10122000FF7322F4E04203EA0121114381837047F6
:101230000029018802D041F0800102E040F27F32B3
:101240001140018070470029818802D041F00401DB
:1012500001E021F00401818070470029818802D0DB
:1012600041F0080101E021F0080181807047002968
:10127000818802D041F0010101E021F0010181806B
:101280007047028B22F008020A4302837047028BE8
:101290004FF6FF7322F4006203EA01211143018338
:1012A0007047828B22F008020A4382837047828B48
:1012B0004FF6FF7322F4006203EA01211143818398
:1012C0007047028B22F004020A4302837047028BAC
:1012D0004FF6FF7322F4806203EA01211143018378
:1012E0007047828B22F004020A4382837047828B0C
:1012F0004FF6FF7322F4806203EA012111438183D8
:101300007047028B22F080020A4302837047028BEF
:101310004FF6FF73C2F30E0203EA0121114301836A
:101320007047828B22F080020A4382837047828B4F
:101330004FF6FF73C2F30E0203EA012111438183CA
:101340007047028C22F002020A4302847047028C2A
:1013500022F008020A4302847047028C4FF6FF73A2
:1013600022F0200203EA0111114301847047028C2C
:101370004FF6FF7322F0800203EA0111114301844A
:101380007047028C4FF6FF7322F4007203EA0121CA
:10139000114301847047028C4FF6FF7322F4006200
:1013A00003EA0121114301847047028C4FF6FF7359
:1013B00022F4005203EA013111430184704710B551
:1013C000038C01248C40A3430384038C8A40134381
:1013D000038410BD10B5038C04248C40A343038404
:1013E000038C8A401343038410BD10B5038C012481
:1013F0008C40A343038491B1082910D0091FC1F385
:101400004E010844816948F6FF7319408161816982
:101410004FF6FF7303EA02221143816110BD00EB16
:10142000510081694FF68F73194081618169F3E73B
:101430000029018802D041F0020102E040F2FD32B1
:101440001140018070470029018802D041F0040159
:1014500002E040F2FB321140018070470029818890
:1014600002D041F0800101E021F0800181807047CD
:10147000028840F2F7331A40028002880A43028051
:101480007047828822F07002828082880A438280BC
:101490007047028922F00702028102890A43028111
:1014A0007047028922F08002028102890A43028188
:1014B00070478184704781857047818670470187B6
:1014C000704781877047A0F8401070470288D2B2F9
:1014D000028002880A4302807047808E7047008F26
:1014E0007047808F7047B0F840007047808C70471D
:1014F000008D704702460020128A0A4200D0012067
:101500007047C9430182704702460020138A9289BE
:101510000B4202EA010202D0002A00D001207047EB
:10152000C9430182704770B5048C24F0010404841F
:10153000058B048C4FF6FF7606EA0313134325F060
:10154000F3052B4324F002020A4342F00101038316
:10155000018470BD9B4910B5401810D0B0F5806F64
:1015600010D0B0F5784F18D101210C032046FFF7B9
:1015700061F92046BDE810400021FFF75BB9012169
:101580008C0301E00121CC032046FFF75CF92046E3
:10159000BDE810400021FFF756B910BD30B50288F4
:1015A0004C8802F441530A88CD8822438C882C430E
:1015B00022430C8922434C8922438C892243CC89C3
:1015C00022431A430280828B22F400628283098ABA
:1015D000018230BDF0B505460C4602200021AA8BE1
:1015E00085B001264FF240031A40AA832884AF8BAE
:1015F0002289022A20D0A08800B102266846FFF77F
:10160000BDF8E088B0F5007F2CD0208971014143FE
:10161000009800EB80004000B0FBF1F0401D80B26C
:101620000A21B0FBF1F000F00101401A4FF6FF7201
:10163000C0F34F0002EA0121821EFE2A01D30220DC
:101640000021E288084302432A8420886188628955
:101650000843A18811430843384340F40060A8833D
:1016600005B0F0BD0098218900EB80004000090220
:10167000D2E70021018041808180C18001814181C8
:101680008181C18107210182704700210180418051
:101690008180C18002220281418170470029018836
:1016A00002D041F0400101E021F04001018070478B
:1016B0000029818B02D041F4806101E021F4806136
:1016C00081837047090901238B40002A828899B2DF
:1016D00001D00A4300E08A4382807047002A828852
:1016E00001D00A4300E08A438280704781817047BD
:1016F00080897047A1F57E420188FF3A02D041F40B
:10170000807101E021F48071018070470029818897
:1017100002D041F0040101E021F004018180704712
:10172000028822F40062028002880A430280704725
:10173000018841F48051018070470029018802D05E
:1017400041F4005101E021F400510180704701296A
:1017500001D0008B7047808A7047008A7047B1F5CE
:10176000804F018803D021F480410180704741F40B
:101770008041FAE70246002012890A4200D0012087
:101780007047C9430181704730B501F00F0301254F
:10179000024605FA03F40020A3B2090905FA01F490
:1017A0009188A4B2128921401A4202D0002900D0A7
:1017B000012030BD01F00F0201219140C943018198
:1017C0007047000000C8FFBFC04910B540180DD0D9
:1017D000B0F5806F0DD101218C052046FFF733F85D
:1017E0002046BDE810400021FFF72DB801214C052F
:1017F000F3E710BD70B50446808886B00D4620F032
:101800003F066846FEF7BAFFB1490298B0FBF1F116
:1018100089B20E43A680228822F001022280AD4BBD
:10182000EA689A421CD85200B0FBF2F080B2042859
:1018300000D20420491C2184A083208840F00100AC
:10184000208020884FF6F53108402988EA88114326
:10185000014321802889A9880843208106B070BDF2
:101860006B88A3F53F46FF3E0BD002EBC20303EBB0
:101870000212B0FBF2F080B240F48040020506D0C4
:1018800007E002EB4202B0FBF2F080B2F6E740F074
:1018900001004FF4967251434FF47A72B1FBF2F1AA
:1018A00040F40040C6E7002101804BF6FF72428001
:1018B0008180C1804FF48041018141F28831C16053
:1018C00070470029018802D041F0010101E021F0B8
:1018D0000101018070470029818802D041F4006134
:1018E00001E021F40061818070470029818802D0E5
:1018F00041F4805101E021F480518180704700293A
:10190000018802D041F4807101E021F480710180EE
:1019100070470029018802D041F4007101E021F4F0
:101920000071018070470029018802D041F4806174
:1019300001E021F4806101807047828901F0FE019D
:1019400022F0FE021143818170470029818902D073
:1019500041F0010101E021F001018181704700297E
:10196000018802D041F0400101E021F040010180F6
:101970007047002A828801D00A4300E08A438280AF
:10198000704701827047008AC0B2704712B141F0BF
:10199000010101E001F0FE0101827047405A7047E9
:1019A0000029018802D041F4004101E0C1F30E0199
:1019B00001807047B1F5005F018803D021F4005128
:1019C0000180704741F40051FAE70029018802D0F4
:1019D00041F4805101E021F4805101807047B1F55C
:1019E000006F018803D021F400610180704741F449
:1019F0000061FAE70029018802D041F0200101E0EE
:101A000021F0200101807047008B000A70470029F7
:101A1000018802D041F0100101E021F010010180A5
:101A200070470029018803D021F0800101807047B0
:101A300041F08001FAE7B1F5804F818B02D021F4AB
:101A4000804101E041F4804181837047818A008BAD
:101A500041EA004121F07F407047034600209A8A06
:101A60001B8B42EA034222F07F428A4200D10120CE
:101A700070470CB50246002000920A0F21F07F410A
:101A8000019202D0009A143202E0009A090C183236
:101A9000009212680A4200D001200CBDC943818225
:101AA000704710B5034600209A884FF4E06404EABA
:101AB00011449B8A224021F07F410B4202D0002A30
:101AC00000D0012010BDC9438182704700ACFFBF28
:101AD00040420F00A08601000CB50022324800925F
:101AE0000192016841F4803101604FF4A063016804
:101AF00001F4003101910099491C0091019911B93B
:101B000000999942F3D10168890333D501210191EC
:101B100026490A6842F010020A600A6822F00302AD
:101B20000A600A6842F002020A6041684160416846
:101B30004160416841F480614160416821F47C1159
:101B40004160416841F4E8114160016841F08071F1
:101B5000016001688901FCD5416821F00301416001
:101B6000416841F0020141604168C1F381010229ED
:101B7000FAD10CBD0192FEE70B48016841F001016A
:101B8000016041680A4A114041600168094A1140F8
:101B90000160016821F480210160416821F4FE01A7
:101BA00041600021816097E7001002400020024060
:101BB0000000FFF8FFFFF6FE2DE9F05F00244FF470
:101BC000003791468A4680467D12FB4E06E020464D
:101BD000641CA84202D90020BDE8F09F3946304677
:101BE000FFF747FF0028F2D1002401213046FFF71C
:101BF00086FEF24F06E02046641CA84202D901216D
:101C000030463DE039463046FFF727FF0028F2D046
:101C10000024224680213046FFF7B8FEE84F03E05B
:101C20002046641CA842EAD839463046FFF715FF23
:101C30000028F5D0002441463046FFF7A2FEE04FD1
:101C4000A846BF1E03E02046641C4045D7D839464D
:101C50003046FFF702FF0028F5D0C3460024B846FF
:101C60002546374618E01AF805103846FFF789FE72
:101C70005E4608E02046641CB04204D90121384683
:101C8000FFF747FEA7E741463846FFF7E6FE002884
:101C9000F0D000246D1CEDB24D45E4D3012138464F
:101CA000FFF737FE39888905FCD4012094E7FEB59B
:101CB00000F0E2F940208DF8000044208DF801008A
:101CC00048208DF8020000254C208DF803008DF887
:101CD0000450FA208DF805008DF806508DF8075055
:101CE0002C466E4601AF3919305D0122FFF764FFC3
:101CF000641CE4B2042CF6D3B24803214570817011
:101D000000F04DFA00F0F6F901210846FEF789FDD2
:101D10004FF080463046FEF78FFF48F69F40ADF803
:101D200004000124ADF80040ADF80650ADF80250B3
:101D30008DF8085069463046FEF7D3FF0121304642
:101D4000FFF776FA01213046FFF7DBFB012211464F
:101D50003046FFF7CBF901213046FFF7B1F91C20DF
:101D60008DF8000002208DF801008DF802508DF8EA
:101D700003406846FEF70DFFFEBD2DE9F05F1446F7
:101D80000D46834600274FF400384FF48076DFF885
:101D9000289205E038467F1CB04201D900201BE79D
:101DA00041464846FFF765FE0028F3D10027012190
:101DB0004846FFF7B8FD01214846FFF7A0FDDFF8D0
:101DC000FCA1B0460BE038467F1C404507D90021F6
:101DD0004C464846FFF7A7FD012120465AE05646EB
:101DE00051464846FFF739FE0028ECD000273A4616
:101DF00080214846FFF7CAFDDFF8C4A106E0384657
:101E00007F1C404502D90121484643E051464846DF
:101E1000FFF723FE0028F2D0002759464846FFF777
:101E2000B0FDDFF89CA1AAF1020A03E038467F1C4E
:101E30004045E8D851464846FFF70FFE0028F5D048
:101E4000002701214846FFF75AFDB2464646C846DC
:101E500006E038467F1CB04202D90121404619E015
:101E600051464046FFF7F9FD0028F2D00027012235
:101E70008021C1464046FFF789FDDFF840A1B0460A
:101E80000AF1010A4E4608E038467F1C404504D955
:101E900001213046FFF73DFD80E751463046FFF710
:101EA000DCFD0028F0D0454F3F3716E0012C07D16C
:101EB00000213046FFF737FD01213046FFF729FDAD
:101EC00039463046FFF7C9FD0028F9D03046FFF704
:101ED0005AFD641E05F8010BE4B2002CE6D1012185
:101EE0003046FFF720FD012076E62DE9F041354C24
:101EF000207801285DD100F061F9E078002598B3E1
:101F00006078314EF0B1771439463046FEF711FB58
:101F100058B3002239463046FEF719FB6179E08854
:101F200004EB410108836079401CC0B2607108284D
:101F300001D36571257039463046FEF7FAFAF0B1E3
:101F4000002215E04FF4804739463046FEF7F1FA9B
:101F500060B1002239463046FEF7F9FA6179E0882F
:101F600004EB41010881E6E70BE006E00122F1E71E
:101F700039463046FEF7EBFA0EE00122CAE70122AD
:101F8000F6E76079401CC0B26071082801D3657122
:101F900025702079401C2071607818B1657004208C
:101FA000A07002E006206070A570BDE8F04100F06E
:101FB000F6B8BDE8F08100000054004001000300C5
:101FC00082000700440000200010014010B50121EC
:101FD0008C072046FFF798FA002807D0FFF785FF07
:101FE0002046BDE810400121FFF79ABA10BD70B538
:101FF000834C207800283ED1B4F90810012004EB6E
:102000004002401CB2F90820C0B211440828F6D39F
:1020100041F3CF026285B4F91810012004EB4003AC
:10202000401CB3F91830C0B219440828F6D341F364
:10203000CF007449A08591F8783023B1B1F87A10B7
:10204000511AE18502E0A2F27912E2852086217917
:102050000025012641B16CA000F002FE2079012884
:1020600002D984F8285001E084F82860207984F8A7
:1020700029002670257170BD30B585B0012108207A
:10208000FEF7C6FB01214805FEF7CBFBC020ADF8EB
:10209000100003208DF812001C205E4C8DF81300F8
:1020A00004A92046FEF7E5F900215B480390ADF84E
:1020B00000104BF6FF70ADF80200ADF804104FF4BD
:1020C0008040564DADF80610ADF808006946284628
:1020D000FFF790FB01212846FFF7F3FB2020ADF826
:1020E000100004208DF8130004A92046FEF7C1F962
:1020F00005B030BD2DE9F04100244FF400377D10CC
:10210000464E03E02046641CA84247D83946304674
:10211000FFF7AFFC0028F5D1002401213046FFF77E
:10212000EEFB3F4F03E02046641CA84223D839460B
:102130003046FFF792FC0028F5D00024224680218B
:102140003046FFF723FC374F03E02046641CA842CB
:1021500011D839463046FFF780FC0028F5D000241E
:1021600008213046FFF70DFC2E4FBF1E09E0204628
:10217000641CA84205D93046BDE8F0410121FFF7B3
:10218000C8BB39463046FFF768FC0028EFD0012174
:102190003046FFF7BEFB31888905FCD409E71848B3
:1021A00008B541788078090141EA40008DF80000C7
:1021B000012269464020FFF7FFFC08BDF8B54FF447
:1021C0007A7400260E4D134F01E0641EA4B2202144
:1021D0003846FEF7A4F910B1002CF6D10DE064B139
:1021E000022269461020FFF7C8FD30B1BDF800009B
:1021F00040BAE8800120E870F8BDEE80EE70F8BDCE
:1022000044000020800000206572725F636E743AA3
:1022100025640A00000C0140400D030000540040FA
:10222000010003008200070030B587B001211C20A7
:10223000FEF7EEFA01210803FEF7EAFA012108464B
:10224000FEF7E6FA01215C48FEF79EF92020ADF882
:10225000140003248DF816401820584D8DF81700EF
:1022600005A92846FEF705F98021ADF8141005A947
:102270002846FEF7FEF80820ADF814008DF8164049
:1022800010208DF8170005A94D48FEF7F2F84FF41D
:102290006040ADF8140005A94A48FEF7EAF8A0032B
:1022A000ADF800004FF48270ADF80200E814ADF80C
:1022B000040000240220ADF80600ADF8084000023A
:1022C000ADF80A000720404DADF80C40ADF8100005
:1022D000ADF80E4069462846FFF760F9012128460F
:1022E000FFF7DCF939480470C480048107B030BDC1
:1022F0002DE9F047354D4FF48052501E69889142C8
:1023000000D36880A9889046414500D3A880012663
:102310002D4F344602213846FFF72CFA0028F9D019
:10232000DFF89C9008214846FEF70FF956EA0400B2
:1023300040D056B34FF400460CB32A78A88848EA38
:102340008231084381B23C463846FFF7CFF9A046B8
:1023500002214046FFF70EFA0028F9D008214C462A
:102360004846FEF7F0F808212046FEF7EEF82978F7
:10237000688846EA8131084381B240460CE02978FA
:10238000688846EA8131084304E03CB1A88829788E
:1023900040EA813081B23846FFF7A8F90221384679
:1023A000FFF7E8F90028F9D04846BDE8F0470821D2
:1023B000FEF7C9B8BDE8F087000230000008014010
:1023C000000C014000100140003001407600002068
:1023D0007047FDF7A5BF704770B500F0C7F8FFF76D
:1023E00006FE2848007A002812D1274C94F82800CD
:1023F00000280DD000F0EAFB0025244804F8285FEF
:1024000042880188B4F9023021A000F029FC25702F
:1024100070BD70B5234D0024E87900B1EC71A87946
:1024200010B1AC71FDF77CFF287900B12C7168798F
:1024300010B16C71FFF7D0FFBDE8704000F0D5BA65
:10244000184B10B518680122401C1860DA71C107DA
:1024500000D19A711421B0FBF1F401FB140101B910
:102460001A71C821B0FBF1F401FB140101B95A71D2
:102470004FF4FA61B0FBF1F201FB1200002800D129
:10248000186010BD800000204400002020000020C3
:10249000493D25642C563D25642C20693D25640A60
:1024A00000000000140000203EB501210220FEF7CC
:1024B000B8F92C4C2046FEF7BFFB40F20770ADF890
:1024C000040001200021ADF80000ADF80610ADF8C1
:1024D00002108DF8081069462046FEF702FC012123
:1024E0002046FEF7A5FE01212046FFF70AF801224B
:1024F00011462046FEF7FAFD01212046FEF7E0FDD9
:102500003EBD08B51D208DF8000000208DF80100AB
:102510008DF8020001208DF803006846FEF739FBB4
:1025200008BD10B5FFF7C0FFBDE81040E9E710B5E2
:102530000C4C01212046FEF7E7FF002810D00A4A84
:102540001088401C81B211800A2903D3002010801A
:10255000FFF776FF2046BDE810400121FEF7E0BFFF
:1025600010BD0000000400401C00002070B5194A96
:10257000107802282CD1002010705178548895884A
:1025800081B1012915D0022919D0032920D129466A
:10259000204600F07FF82A462146BDE870400EA094
:1025A00000F05EBB00F068F8BDE8704012A000F0DB
:1025B00057BB204600F03AF8214612A004E020461E
:1025C00000F043F8214614A0BDE8704000F048BB7D
:1025D00070BD000028000020BAE3C1F7BAE3D1B90A
:1025E000C4A3CABD2CB5E7C1F73D25642CB5E7D11E
:1025F000B93D25640A000000CDA3D6B9C4A3CABD65
:102600000A000000BAE3C1F7C4A3CABD2CD6B5CEF8
:10261000AA25640A00000000BAE3D1B9C4A3CABD68
:102620002CD6B5CEAA25640A00000000204910B5BA
:1026300048804FF4C0608880FFF75AFEBDE8104024
:102640004FF400411B48FDF77EBF00EBC00101EBDA
:102650000010194980B24843154910B54FF4FD6286
:10266000000C4A808880FFF743FEBDE810404FF41D
:1026700000411048FDF769BF0D4810B500214180A9
:102680008180FFF735FEBDE810404FF40041094856
:10269000FDF75BBF064A10B550809180FFF728FE1A
:1026A000BDE810404FF400410248FDF74EBF000066
:1026B0007600002000100140805D01004FF47A7127
:1026C000FB48016040F6B8314160012101720021F0
:1026D0004172704730B5F64B5C7B9CB102B2012C65
:1026E00019D003EB4404258A6282281A00B200281C
:1026F00000DA4042DA8900B2824200DAD8811A8ACE
:1027000010441882587B401CC0B25873884215D1BF
:102710000022012009E0E6488282F3E703EB40044F
:10272000401CB4F91240C0B222448842F6D3491E7C
:10273000B2FBF1F0A3F876000120187330BDDC4A3B
:102740000021084611735173D1811182A2F87610CD
:1027500002EB4003401CC0B259823228F8D37047C4
:1027600070B5D44C94F8280030B1608D0521FFF786
:10277000B1FF012084F82800CD4D287B002839D0F6
:10278000CDA000F06DFA002405EB4400B0F9121062
:10279000CDA000F065FA641CE4B2052CF4D3CBA004
:1027A00000F05EFAB5F97630EA89B5F91010C9A0E3
:1027B00000F056FAB5F87600B5F87A10CD4C401A0C
:1027C00000B2042809DDFFF7BAFF082068722188EB
:1027D000BDE87040C8A000F043BAFFF7B0FF218801
:1027E000C9A000F03DFA2088411C2180FFF71EFFA0
:1027F0000520E87270BD70B5AE4C94F8280030B179
:10280000608D3221FFF766FF002084F82800A84D74
:10281000287B00282BD0A9A000F022FA002405EB89
:102820004400B0F91210A8A000F01AFA641CE4B237
:10283000322CF4D3A5A000F013FAB5F97630EA896A
:10284000B5F91010A3A000F00BFAE88908240A28B3
:1028500003D9FFF774FF052007E0B5F910006430D5
:10286000C82805D9FFF76BFF0420A8726C7270BDF1
:1028700035F8760FA988401AA88135F8760C28819A
:10288000FFF75DFF05F86D4C032005F86B0CA1A068
:1028900000F0E6F9B5F90430B5F90C20B5F90A10E5
:1028A000BDE87040A0A000F0DBB970B5814C94F891
:1028B000280030B1A08D3221FFF70CFF002084F8F2
:1028C00028007B4D287B002842D07CA000F0C8F96E
:1028D000002405EB4400B0F912107BA000F0C0F911
:1028E000641CE4B2322CF4D378A000F0B9F9B5F945
:1028F0007630EA89B5F9101076A000F0B1F9E889D0
:10290000032408260A2803D9FFF719FFAC7208E050
:10291000B5F910006430C82806D9FFF710FF02206F
:10292000A8726E7286A00FE0B5F87600A5F8800058
:10293000A888A5F87C00FFF702FF0F20FFF785FEAF
:1029400004206872EC7284A0BDE8704000F088B981
:1029500070BD70B5574C94F8280030B1608D3221AD
:10296000FFF7B8FE002084F82800514D287B00288E
:102970002AD052A000F074F9002405EB4400B0F90D
:10298000121051A000F06CF9641CE4B2322CF4D3A4
:102990004EA000F065F9B5F97630EA89B5F9101066
:1029A0004CA000F05DF9E889052408260A2801D921
:1029B000AC7208E0B5F910006430C82805D9FFF7FB
:1029C000BEFE0420A8726E7270BDB5F87600A5F840
:1029D0007A00FFF7B4FE0020FFF728FE6C72EC725D
:1029E000BDE8704062A000F03BB970B53049087A8C
:1029F00001281FD1C87A2F4D002450B195F8282006
:102A0000002A17D0401E85F8284010F0FF00C87239
:102A100010D14A7A0120092A0CD2DFE802F005120F
:102A200016191C1F220B2D000B6808221BB14B68C6
:102A30001BB1487270BD062000E0072088724A7200
:102A400070BDBDE8704000F01BB8BDE8704080E785
:102A5000BDE8704029E7BDE87040CCE6BDE87040B5
:102A60007EE695F828000028EAD0A88D3221FFF7ED
:102A700031FE85F8284070BD0C7281F8780070BD79
:102A800010B50020FFF7D2FD0A4C94F8280000286A
:102A90007AD0B4F92C0064287ADDFFF750FE0020CC
:102AA000FFF7C4FD0248022141720521C1726DE0A9
:102AB0008000002044000020C1E3B5E3B2C9BCAFF0
:102AC000CAFDBEDDCEAA0A0025642C000ABCC6CB16
:102AD000E3000000415F6572723A25642C204D5F6F
:102AE0006572723A25642C20415F566F6C743A25EA
:102AF000642C20001E000020D5D2B5BDC1E3B5E393
:102B00003A25640A00000000646163203D202564CA
:102B10000A000000444143B5E7D1B9D0A3D7BCBFF8
:102B2000AACABC0A000000004D52563A25642C2067
:102B30004D52433A25642C204D5A3A25640A000030
:102B40006572723AD0A3D7BC414443B5E7D1B9B25C
:102B5000A8B6AFB4F30A0000414443B5E7C1F7D0CB
:102B6000A3D7BCBFAACABCB2C9BCAF0A0000000050
:102B70000A414443B5E7D1B9D0A3D7BCBFAACABC68
:102B8000B2C9BCAF0A00000008E001E004A000E008
:102B900009A000F065F8002084F8280010BD0000AE
:102BA000414443C1E3B5E7C1F7B2B9B3A5D6B5B265
:102BB000C9BCAF0A0000000020B5C8B4FDD0A3D73F
:102BC000BCD4B4B2E5C8EB0A000000000D4890F890
:102BD0007810002915D00C4AB0F97E10B2F92E30C9
:102BE0005943B0F9823091FBF3F308490B8030F977
:102BF0007C3FB2F93020B0F90400534393FBF0F06E
:102C00004880704780000020440000202000002001
:102C100030B50B46014600202022012409E021FAAC
:102C200002F59D4205D303FA02F5491B04FA02F5A9
:102C30002844151EA2F10102F1DC30BD064C074DFF
:102C400006E0E06840F0010394E80700984710347C
:102C5000AC42F6D3FDF770FAF42D0008142E0008EC
:102C60000FB4054B10B503A9044A029800F018F8F8
:102C700010BC5DF814FB000067030008240000206E
:102C800002E008C8121F08C1002AFAD17047704735
:102C9000002001E001C1121F002AFBD17047000093
:102CA0002DE9FF4F89B09B460446002506E0252804
:102CB0000BD05A460B999047641C6D1C2078002855
:102CC000F5D10DB02846BDE8F08F0027B8460122A7
:102CD000474900E0074314F8013F203B02FA03F0A4
:102CE0000842F7D120782E2819D114F8010F47F0A7
:102CF00004072A280ED06FF02F022078A0F13001AF
:102D000009290CD808EB880102EB410100EB01080E
:102D1000641CF2E70A98641C50F8048B0A9020782F
:102D20000028CED0642808D0692806D075281ED087
:102D30005A460B9990476D1C58E00A994FF00A09C2
:102D400001C90A91002802DA40422D2102E039052A
:102D500004D52B218DF82010012103E0F90704D0C0
:102D60002021F7E78A4608AE0DE00021FAE70A992C
:102D70004FF00A0901C90A91F7E74946FFF748FFF2
:102D8000303106F8011D0028F7D1ADEB060000F147
:102D90002009780701D44FF00108C84502DDA8EBEF
:102DA000090000E000208046002706E008A85A46F7
:102DB000C05D0B9990476D1C7F1C5745F6DB04E006
:102DC00030205A460B9990476D1CB8F10001A8F1CC
:102DD0000108F5DC05E016F8010B5A460B999047FF
:102DE0006D1CB9F10001A9F10109F4DC641C65E76F
:102DF00009280100142E000800000020280000000F
:102E0000802C00083C2E000828000020E002000072
:102E1000902C0008020406080000000001020304D0
:102E2000010203040607080900000000000000007A
:0C2E30000000B4000000000000000000E2
:040000050800014BA3
:00000001FF
